{
  "address": "0xe7f1725E7734CE288F8367e1Bb143E90bb3F0512",
  "abi": [
    {
      "inputs": [
        {
          "internalType": "address",
          "name": "s_priceFeedAddress",
          "type": "address"
        }
      ],
      "stateMutability": "nonpayable",
      "type": "constructor"
    },
    {
      "inputs": [],
      "name": "FundMe__NotOwner",
      "type": "error"
    },
    {
      "stateMutability": "payable",
      "type": "fallback"
    },
    {
      "inputs": [],
      "name": "fund",
      "outputs": [],
      "stateMutability": "payable",
      "type": "function"
    },
    {
      "inputs": [
        {
          "internalType": "address",
          "name": "funder",
          "type": "address"
        }
      ],
      "name": "getAddressToAmountFunded",
      "outputs": [
        {
          "internalType": "uint256",
          "name": "",
          "type": "uint256"
        }
      ],
      "stateMutability": "view",
      "type": "function"
    },
    {
      "inputs": [
        {
          "internalType": "uint256",
          "name": "ethAmount",
          "type": "uint256"
        }
      ],
      "name": "getConversionRate",
      "outputs": [
        {
          "internalType": "uint256",
          "name": "",
          "type": "uint256"
        }
      ],
      "stateMutability": "view",
      "type": "function"
    },
    {
      "inputs": [
        {
          "internalType": "uint256",
          "name": "index",
          "type": "uint256"
        }
      ],
      "name": "getFunder",
      "outputs": [
        {
          "internalType": "address",
          "name": "",
          "type": "address"
        }
      ],
      "stateMutability": "view",
      "type": "function"
    },
    {
      "inputs": [],
      "name": "getOwner",
      "outputs": [
        {
          "internalType": "address",
          "name": "",
          "type": "address"
        }
      ],
      "stateMutability": "view",
      "type": "function"
    },
    {
      "inputs": [],
      "name": "getPriceFeed",
      "outputs": [
        {
          "internalType": "contract AggregatorV3Interface",
          "name": "",
          "type": "address"
        }
      ],
      "stateMutability": "view",
      "type": "function"
    },
    {
      "inputs": [],
      "name": "getprice",
      "outputs": [
        {
          "internalType": "uint256",
          "name": "",
          "type": "uint256"
        }
      ],
      "stateMutability": "view",
      "type": "function"
    },
    {
      "inputs": [],
      "name": "s_priceFeed",
      "outputs": [
        {
          "internalType": "contract AggregatorV3Interface",
          "name": "",
          "type": "address"
        }
      ],
      "stateMutability": "view",
      "type": "function"
    },
    {
      "inputs": [],
      "name": "withdraw",
      "outputs": [],
      "stateMutability": "payable",
      "type": "function"
    },
    {
      "stateMutability": "payable",
      "type": "receive"
    }
  ],
  "transactionHash": "0xd7b7e9e78506a6f87934780bfcf8df2d21080607a1942dd869a939be8358ceb8",
  "args": [
    "0x5FbDB2315678afecb367f032d93F642f64180aa3"
  ],
  "numDeployments": 1,
  "solcInputHash": "caf29b70bb880098f80042b517dfa556",
  "bytecode": "0x60a060405234801561001057600080fd5b506040516200103d3803806200103d83398181016040528101906100349190610115565b3373ffffffffffffffffffffffffffffffffffffffff1660808173ffffffffffffffffffffffffffffffffffffffff1660601b8152505080600260006101000a81548173ffffffffffffffffffffffffffffffffffffffff021916908373ffffffffffffffffffffffffffffffffffffffff16021790555050610142565b600080fd5b600073ffffffffffffffffffffffffffffffffffffffff82169050919050565b60006100e2826100b7565b9050919050565b6100f2816100d7565b81146100fd57600080fd5b50565b60008151905061010f816100e9565b92915050565b60006020828403121561012b5761012a6100b2565b5b600061013984828501610100565b91505092915050565b60805160601c610ed5620001686000396000818161045601526106d90152610ed56000f3fe60806040526004361061008a5760003560e01c80636e5b6b28116100595780636e5b6b2814610140578063893d20e81461017d5780639e87a5cd146101a8578063b60d4288146101d3578063d7b4750c146101dd57610099565b80630343fb25146100a35780630ec3b027146100e05780630fcb59841461010b5780633ccfd60b1461013657610099565b366100995761009761021a565b005b6100a161021a565b005b3480156100af57600080fd5b506100ca60048036038101906100c59190610879565b610326565b6040516100d791906108bf565b60405180910390f35b3480156100ec57600080fd5b506100f561036e565b6040516101029190610939565b60405180910390f35b34801561011757600080fd5b50610120610394565b60405161012d91906108bf565b60405180910390f35b61013e610454565b005b34801561014c57600080fd5b5061016760048036038101906101629190610980565b61069b565b60405161017491906108bf565b60405180910390f35b34801561018957600080fd5b506101926106d5565b60405161019f91906109bc565b60405180910390f35b3480156101b457600080fd5b506101bd6106fd565b6040516101ca9190610939565b60405180910390f35b6101db61021a565b005b3480156101e957600080fd5b5061020460048036038101906101ff9190610980565b610727565b60405161021191906109bc565b60405180910390f35b6000600190508061022a3461069b565b101561026b576040517f08c379a000000000000000000000000000000000000000000000000000000000815260040161026290610a34565b60405180910390fd5b346000803373ffffffffffffffffffffffffffffffffffffffff1673ffffffffffffffffffffffffffffffffffffffff16815260200190815260200160002060008282546102b99190610a83565b925050819055506001339080600181540180825580915050600190039060005260206000200160009091909190916101000a81548173ffffffffffffffffffffffffffffffffffffffff021916908373ffffffffffffffffffffffffffffffffffffffff16021790555050565b60008060008373ffffffffffffffffffffffffffffffffffffffff1673ffffffffffffffffffffffffffffffffffffffff168152602001908152602001600020549050919050565b600260009054906101000a900473ffffffffffffffffffffffffffffffffffffffff1681565b600080600260009054906101000a900473ffffffffffffffffffffffffffffffffffffffff1673ffffffffffffffffffffffffffffffffffffffff1663feaf968c6040518163ffffffff1660e01b815260040160a06040518083038186803b1580156103ff57600080fd5b505afa158015610413573d6000803e3d6000fd5b505050506040513d601f19601f820116820180604052508101906104379190610b66565b5050509150506402540be4008161044e9190610be1565b91505090565b7f000000000000000000000000000000000000000000000000000000000000000073ffffffffffffffffffffffffffffffffffffffff163373ffffffffffffffffffffffffffffffffffffffff16146104d9576040517f579610db00000000000000000000000000000000000000000000000000000000815260040160405180910390fd5b3373ffffffffffffffffffffffffffffffffffffffff166108fc479081150290604051600060405180830381858888f1935050505015801561051f573d6000803e3d6000fd5b5060005b6001805490508110156105cb5760006001828154811061054657610545610cf8565b5b9060005260206000200160009054906101000a900473ffffffffffffffffffffffffffffffffffffffff16905060008060008373ffffffffffffffffffffffffffffffffffffffff1673ffffffffffffffffffffffffffffffffffffffff168152602001908152602001600020819055505080806105c390610d27565b915050610523565b50600067ffffffffffffffff8111156105e7576105e6610d70565b5b6040519080825280602002602001820160405280156106155781602001602082028036833780820191505090505b506001908051906020019061062b92919061076f565b5060003373ffffffffffffffffffffffffffffffffffffffff164760405161065290610dd0565b60006040518083038185875af1925050503d806000811461068f576040519150601f19603f3d011682016040523d82523d6000602084013e610694565b606091505b5050905050565b6000806106a6610394565b90506000670de0b6b3a764000082856106bf9190610de5565b6106c99190610e6e565b90508092505050919050565b60007f0000000000000000000000000000000000000000000000000000000000000000905090565b6000600260009054906101000a900473ffffffffffffffffffffffffffffffffffffffff16905090565b60006001828154811061073d5761073c610cf8565b5b9060005260206000200160009054906101000a900473ffffffffffffffffffffffffffffffffffffffff169050919050565b8280548282559060005260206000209081019282156107e8579160200282015b828111156107e75782518260006101000a81548173ffffffffffffffffffffffffffffffffffffffff021916908373ffffffffffffffffffffffffffffffffffffffff1602179055509160200191906001019061078f565b5b5090506107f591906107f9565b5090565b5b808211156108125760008160009055506001016107fa565b5090565b600080fd5b600073ffffffffffffffffffffffffffffffffffffffff82169050919050565b60006108468261081b565b9050919050565b6108568161083b565b811461086157600080fd5b50565b6000813590506108738161084d565b92915050565b60006020828403121561088f5761088e610816565b5b600061089d84828501610864565b91505092915050565b6000819050919050565b6108b9816108a6565b82525050565b60006020820190506108d460008301846108b0565b92915050565b6000819050919050565b60006108ff6108fa6108f58461081b565b6108da565b61081b565b9050919050565b6000610911826108e4565b9050919050565b600061092382610906565b9050919050565b61093381610918565b82525050565b600060208201905061094e600083018461092a565b92915050565b61095d816108a6565b811461096857600080fd5b50565b60008135905061097a81610954565b92915050565b60006020828403121561099657610995610816565b5b60006109a48482850161096b565b91505092915050565b6109b68161083b565b82525050565b60006020820190506109d160008301846109ad565b92915050565b600082825260208201905092915050565b7f596f75206e65656420746f207370656e64206d6f726520455448210000000000600082015250565b6000610a1e601b836109d7565b9150610a29826109e8565b602082019050919050565b60006020820190508181036000830152610a4d81610a11565b9050919050565b7f4e487b7100000000000000000000000000000000000000000000000000000000600052601160045260246000fd5b6000610a8e826108a6565b9150610a99836108a6565b9250827fffffffffffffffffffffffffffffffffffffffffffffffffffffffffffffffff03821115610ace57610acd610a54565b5b828201905092915050565b600069ffffffffffffffffffff82169050919050565b610af881610ad9565b8114610b0357600080fd5b50565b600081519050610b1581610aef565b92915050565b6000819050919050565b610b2e81610b1b565b8114610b3957600080fd5b50565b600081519050610b4b81610b25565b92915050565b600081519050610b6081610954565b92915050565b600080600080600060a08688031215610b8257610b81610816565b5b6000610b9088828901610b06565b9550506020610ba188828901610b3c565b9450506040610bb288828901610b51565b9350506060610bc388828901610b51565b9250506080610bd488828901610b06565b9150509295509295909350565b6000610bec82610b1b565b9150610bf783610b1b565b9250827f7fffffffffffffffffffffffffffffffffffffffffffffffffffffffffffffff0482116000841360008413161615610c3657610c35610a54565b5b817f80000000000000000000000000000000000000000000000000000000000000000583126000841260008413161615610c7357610c72610a54565b5b827f80000000000000000000000000000000000000000000000000000000000000000582126000841360008412161615610cb057610caf610a54565b5b827f7fffffffffffffffffffffffffffffffffffffffffffffffffffffffffffffff0582126000841260008412161615610ced57610cec610a54565b5b828202905092915050565b7f4e487b7100000000000000000000000000000000000000000000000000000000600052603260045260246000fd5b6000610d32826108a6565b91507fffffffffffffffffffffffffffffffffffffffffffffffffffffffffffffffff821415610d6557610d64610a54565b5b600182019050919050565b7f4e487b7100000000000000000000000000000000000000000000000000000000600052604160045260246000fd5b600081905092915050565b50565b6000610dba600083610d9f565b9150610dc582610daa565b600082019050919050565b6000610ddb82610dad565b9150819050919050565b6000610df0826108a6565b9150610dfb836108a6565b9250817fffffffffffffffffffffffffffffffffffffffffffffffffffffffffffffffff0483118215151615610e3457610e33610a54565b5b828202905092915050565b7f4e487b7100000000000000000000000000000000000000000000000000000000600052601260045260246000fd5b6000610e79826108a6565b9150610e84836108a6565b925082610e9457610e93610e3f565b5b82820490509291505056fea26469706673582212201f5d7511c2f036beb7e019dccf08e2ac9d68f624fbb7c9d238b664c33b6001c764736f6c63430008080033",
  "devdoc": {
    "author": "BZ",
    "details": "This implements price feeds as our library",
    "kind": "dev",
    "methods": {
      "fund()": {
        "details": "This implements price feeds as our library"
      }
    },
    "title": "A contract for crowd funding",
    "version": 1
  },
  "userdoc": {
    "kind": "user",
    "methods": {
      "fund()": {
        "notice": "This function funds this contract"
      }
    },
    "notice": "This contract is to demo a sample funding contract",
    "version": 1
  },
  "storageLayout": {
    "storage": [
      {
        "astId": 55,
        "contract": "contracts/FundMe.sol:FundMe",
        "label": "s_addressToAmountFunded",
        "offset": 0,
        "slot": "0",
        "type": "t_mapping(t_address,t_uint256)"
      },
      {
        "astId": 58,
        "contract": "contracts/FundMe.sol:FundMe",
        "label": "s_funders",
        "offset": 0,
        "slot": "1",
        "type": "t_array(t_address)dyn_storage"
      },
      {
        "astId": 63,
        "contract": "contracts/FundMe.sol:FundMe",
        "label": "s_priceFeed",
        "offset": 0,
        "slot": "2",
        "type": "t_contract(AggregatorV3Interface)45"
      }
    ],
    "types": {
      "t_address": {
        "encoding": "inplace",
        "label": "address",
        "numberOfBytes": "20"
      },
      "t_array(t_address)dyn_storage": {
        "base": "t_address",
        "encoding": "dynamic_array",
        "label": "address[]",
        "numberOfBytes": "32"
      },
      "t_contract(AggregatorV3Interface)45": {
        "encoding": "inplace",
        "label": "contract AggregatorV3Interface",
        "numberOfBytes": "20"
      },
      "t_mapping(t_address,t_uint256)": {
        "encoding": "mapping",
        "key": "t_address",
        "label": "mapping(address => uint256)",
        "numberOfBytes": "32",
        "value": "t_uint256"
      },
      "t_uint256": {
        "encoding": "inplace",
        "label": "uint256",
        "numberOfBytes": "32"
      }
    }
  }
}